{"contracts/TrustLoan.sol":{"TrustLoan":{"abi":[{"anonymous":false,"inputs":[{"indexed":true,"internalType":"address","name":"applicant","type":"address"},{"indexed":false,"internalType":"uint256","name":"income","type":"uint256"},{"indexed":false,"internalType":"uint256","name":"expenses","type":"uint256"},{"indexed":false,"internalType":"uint256","name":"loanAmount","type":"uint256"},{"indexed":false,"internalType":"string","name":"status","type":"string"},{"indexed":false,"internalType":"string","name":"reason","type":"string"}],"name":"EligibilityChecked","type":"event"},{"inputs":[{"internalType":"uint256","name":"income","type":"uint256"},{"internalType":"uint256","name":"expenses","type":"uint256"},{"internalType":"uint256","name":"loanAmount","type":"uint256"}],"name":"checkEligibility","outputs":[{"internalType":"string","name":"status","type":"string"},{"internalType":"string","name":"reason","type":"string"}],"stateMutability":"nonpayable","type":"function"}],"evm":{"bytecode":{"linkReferences":{},"object":"608060405234801561001057600080fd5b50610549806100206000396000f3fe608060405234801561001057600080fd5b506004361061002b5760003560e01c806337f672f914610030575b600080fd5b61004a6004803603810190610045919061024c565b610061565b60405161005892919061032f565b60405180910390f35b606080600085116100a7576040517f08c379a000000000000000000000000000000000000000000000000000000000815260040161009e906103b2565b60405180910390fd5b6000856064866100b79190610401565b6100c19190610472565b90506028811015610141576040518060400160405280600881526020017f415050524f56454400000000000000000000000000000000000000000000000081525092506040518060400160405280601181526020017f4454495f57495448494e5f4c494d49545300000000000000000000000000000081525091506101b2565b6040518060400160405280600881526020017f52454a454354454400000000000000000000000000000000000000000000000081525092506040518060400160405280600c81526020017f4454495f544f4f5f48494748000000000000000000000000000000000000000081525091505b3373ffffffffffffffffffffffffffffffffffffffff167f1361325c7e1444bc7a8e336a9156ccc170d927322fc51464d87270fd5234e70f87878787876040516102009594939291906104b2565b60405180910390a250935093915050565b600080fd5b6000819050919050565b61022981610216565b811461023457600080fd5b50565b60008135905061024681610220565b92915050565b60008060006060848603121561026557610264610211565b5b600061027386828701610237565b935050602061028486828701610237565b925050604061029586828701610237565b9150509250925092565b600081519050919050565b600082825260208201905092915050565b60005b838110156102d95780820151818401526020810190506102be565b60008484015250505050565b6000601f19601f8301169050919050565b60006103018261029f565b61030b81856102aa565b935061031b8185602086016102bb565b610324816102e5565b840191505092915050565b6000604082019050818103600083015261034981856102f6565b9050818103602083015261035d81846102f6565b90509392505050565b7f496e636f6d65206d7573742062652067726561746572207468616e207a65726f600082015250565b600061039c6020836102aa565b91506103a782610366565b602082019050919050565b600060208201905081810360008301526103cb8161038f565b9050919050565b7f4e487b7100000000000000000000000000000000000000000000000000000000600052601160045260246000fd5b600061040c82610216565b915061041783610216565b925082820261042581610216565b9150828204841483151761043c5761043b6103d2565b5b5092915050565b7f4e487b7100000000000000000000000000000000000000000000000000000000600052601260045260246000fd5b600061047d82610216565b915061048883610216565b92508261049857610497610443565b5b828204905092915050565b6104ac81610216565b82525050565b600060a0820190506104c760008301886104a3565b6104d460208301876104a3565b6104e160408301866104a3565b81810360608301526104f381856102f6565b9050818103608083015261050781846102f6565b9050969550505050505056fea2646970667358221220053122e4886a94874be7e25d332444797b2e5b9db69a4d32ea836bc7e8cbbdf664736f6c63430008140033","opcodes":"PUSH1 0x80 PUSH1 0x40 MSTORE CALLVALUE DUP1 ISZERO PUSH2 0x10 JUMPI PUSH1 0x0 DUP1 REVERT JUMPDEST POP PUSH2 0x549 DUP1 PUSH2 0x20 PUSH1 0x0 CODECOPY PUSH1 0x0 RETURN INVALID PUSH1 0x80 PUSH1 0x40 MSTORE CALLVALUE DUP1 ISZERO PUSH2 0x10 JUMPI PUSH1 0x0 DUP1 REVERT JUMPDEST POP PUSH1 0x4 CALLDATASIZE LT PUSH2 0x2B JUMPI PUSH1 0x0 CALLDATALOAD PUSH1 0xE0 SHR DUP1 PUSH4 0x37F672F9 EQ PUSH2 0x30 JUMPI JUMPDEST PUSH1 0x0 DUP1 REVERT JUMPDEST PUSH2 0x4A PUSH1 0x4 DUP1 CALLDATASIZE SUB DUP2 ADD SWAP1 PUSH2 0x45 SWAP2 SWAP1 PUSH2 0x24C JUMP JUMPDEST PUSH2 0x61 JUMP JUMPDEST PUSH1 0x40 MLOAD PUSH2 0x58 SWAP3 SWAP2 SWAP1 PUSH2 0x32F JUMP JUMPDEST PUSH1 0x40 MLOAD DUP1 SWAP2 SUB SWAP1 RETURN JUMPDEST PUSH1 0x60 DUP1 PUSH1 0x0 DUP6 GT PUSH2 0xA7 JUMPI PUSH1 0x40 MLOAD PUSH32 0x8C379A000000000000000000000000000000000000000000000000000000000 DUP2 MSTORE PUSH1 0x4 ADD PUSH2 0x9E SWAP1 PUSH2 0x3B2 JUMP JUMPDEST PUSH1 0x40 MLOAD DUP1 SWAP2 SUB SWAP1 REVERT JUMPDEST PUSH1 0x0 DUP6 PUSH1 0x64 DUP7 PUSH2 0xB7 SWAP2 SWAP1 PUSH2 0x401 JUMP JUMPDEST PUSH2 0xC1 SWAP2 SWAP1 PUSH2 0x472 JUMP JUMPDEST SWAP1 POP PUSH1 0x28 DUP2 LT ISZERO PUSH2 0x141 JUMPI PUSH1 0x40 MLOAD DUP1 PUSH1 0x40 ADD PUSH1 0x40 MSTORE DUP1 PUSH1 0x8 DUP2 MSTORE PUSH1 0x20 ADD PUSH32 0x415050524F564544000000000000000000000000000000000000000000000000 DUP2 MSTORE POP SWAP3 POP PUSH1 0x40 MLOAD DUP1 PUSH1 0x40 ADD PUSH1 0x40 MSTORE DUP1 PUSH1 0x11 DUP2 MSTORE PUSH1 0x20 ADD PUSH32 0x4454495F57495448494E5F4C494D495453000000000000000000000000000000 DUP2 MSTORE POP SWAP2 POP PUSH2 0x1B2 JUMP JUMPDEST PUSH1 0x40 MLOAD DUP1 PUSH1 0x40 ADD PUSH1 0x40 MSTORE DUP1 PUSH1 0x8 DUP2 MSTORE PUSH1 0x20 ADD PUSH32 0x52454A4543544544000000000000000000000000000000000000000000000000 DUP2 MSTORE POP SWAP3 POP PUSH1 0x40 MLOAD DUP1 PUSH1 0x40 ADD PUSH1 0x40 MSTORE DUP1 PUSH1 0xC DUP2 MSTORE PUSH1 0x20 ADD PUSH32 0x4454495F544F4F5F484947480000000000000000000000000000000000000000 DUP2 MSTORE POP SWAP2 POP JUMPDEST CALLER PUSH20 0xFFFFFFFFFFFFFFFFFFFFFFFFFFFFFFFFFFFFFFFF AND PUSH32 0x1361325C7E1444BC7A8E336A9156CCC170D927322FC51464D87270FD5234E70F DUP8 DUP8 DUP8 DUP8 DUP8 PUSH1 0x40 MLOAD PUSH2 0x200 SWAP6 SWAP5 SWAP4 SWAP3 SWAP2 SWAP1 PUSH2 0x4B2 JUMP JUMPDEST PUSH1 0x40 MLOAD DUP1 SWAP2 SUB SWAP1 LOG2 POP SWAP4 POP SWAP4 SWAP2 POP POP JUMP JUMPDEST PUSH1 0x0 DUP1 REVERT JUMPDEST PUSH1 0x0 DUP2 SWAP1 POP SWAP2 SWAP1 POP JUMP JUMPDEST PUSH2 0x229 DUP2 PUSH2 0x216 JUMP JUMPDEST DUP2 EQ PUSH2 0x234 JUMPI PUSH1 0x0 DUP1 REVERT JUMPDEST POP JUMP JUMPDEST PUSH1 0x0 DUP2 CALLDATALOAD SWAP1 POP PUSH2 0x246 DUP2 PUSH2 0x220 JUMP JUMPDEST SWAP3 SWAP2 POP POP JUMP JUMPDEST PUSH1 0x0 DUP1 PUSH1 0x0 PUSH1 0x60 DUP5 DUP7 SUB SLT ISZERO PUSH2 0x265 JUMPI PUSH2 0x264 PUSH2 0x211 JUMP JUMPDEST JUMPDEST PUSH1 0x0 PUSH2 0x273 DUP7 DUP3 DUP8 ADD PUSH2 0x237 JUMP JUMPDEST SWAP4 POP POP PUSH1 0x20 PUSH2 0x284 DUP7 DUP3 DUP8 ADD PUSH2 0x237 JUMP JUMPDEST SWAP3 POP POP PUSH1 0x40 PUSH2 0x295 DUP7 DUP3 DUP8 ADD PUSH2 0x237 JUMP JUMPDEST SWAP2 POP POP SWAP3 POP SWAP3 POP SWAP3 JUMP JUMPDEST PUSH1 0x0 DUP2 MLOAD SWAP1 POP SWAP2 SWAP1 POP JUMP JUMPDEST PUSH1 0x0 DUP3 DUP3 MSTORE PUSH1 0x20 DUP3 ADD SWAP1 POP SWAP3 SWAP2 POP POP JUMP JUMPDEST PUSH1 0x0 JUMPDEST DUP4 DUP2 LT ISZERO PUSH2 0x2D9 JUMPI DUP1 DUP3 ADD MLOAD DUP2 DUP5 ADD MSTORE PUSH1 0x20 DUP2 ADD SWAP1 POP PUSH2 0x2BE JUMP JUMPDEST PUSH1 0x0 DUP5 DUP5 ADD MSTORE POP POP POP POP JUMP JUMPDEST PUSH1 0x0 PUSH1 0x1F NOT PUSH1 0x1F DUP4 ADD AND SWAP1 POP SWAP2 SWAP1 POP JUMP JUMPDEST PUSH1 0x0 PUSH2 0x301 DUP3 PUSH2 0x29F JUMP JUMPDEST PUSH2 0x30B DUP2 DUP6 PUSH2 0x2AA JUMP JUMPDEST SWAP4 POP PUSH2 0x31B DUP2 DUP6 PUSH1 0x20 DUP7 ADD PUSH2 0x2BB JUMP JUMPDEST PUSH2 0x324 DUP2 PUSH2 0x2E5 JUMP JUMPDEST DUP5 ADD SWAP2 POP POP SWAP3 SWAP2 POP POP JUMP JUMPDEST PUSH1 0x0 PUSH1 0x40 DUP3 ADD SWAP1 POP DUP2 DUP2 SUB PUSH1 0x0 DUP4 ADD MSTORE PUSH2 0x349 DUP2 DUP6 PUSH2 0x2F6 JUMP JUMPDEST SWAP1 POP DUP2 DUP2 SUB PUSH1 0x20 DUP4 ADD MSTORE PUSH2 0x35D DUP2 DUP5 PUSH2 0x2F6 JUMP JUMPDEST SWAP1 POP SWAP4 SWAP3 POP POP POP JUMP JUMPDEST PUSH32 0x496E636F6D65206D7573742062652067726561746572207468616E207A65726F PUSH1 0x0 DUP3 ADD MSTORE POP JUMP JUMPDEST PUSH1 0x0 PUSH2 0x39C PUSH1 0x20 DUP4 PUSH2 0x2AA JUMP JUMPDEST SWAP2 POP PUSH2 0x3A7 DUP3 PUSH2 0x366 JUMP JUMPDEST PUSH1 0x20 DUP3 ADD SWAP1 POP SWAP2 SWAP1 POP JUMP JUMPDEST PUSH1 0x0 PUSH1 0x20 DUP3 ADD SWAP1 POP DUP2 DUP2 SUB PUSH1 0x0 DUP4 ADD MSTORE PUSH2 0x3CB DUP2 PUSH2 0x38F JUMP JUMPDEST SWAP1 POP SWAP2 SWAP1 POP JUMP JUMPDEST PUSH32 0x4E487B7100000000000000000000000000000000000000000000000000000000 PUSH1 0x0 MSTORE PUSH1 0x11 PUSH1 0x4 MSTORE PUSH1 0x24 PUSH1 0x0 REVERT JUMPDEST PUSH1 0x0 PUSH2 0x40C DUP3 PUSH2 0x216 JUMP JUMPDEST SWAP2 POP PUSH2 0x417 DUP4 PUSH2 0x216 JUMP JUMPDEST SWAP3 POP DUP3 DUP3 MUL PUSH2 0x425 DUP2 PUSH2 0x216 JUMP JUMPDEST SWAP2 POP DUP3 DUP3 DIV DUP5 EQ DUP4 ISZERO OR PUSH2 0x43C JUMPI PUSH2 0x43B PUSH2 0x3D2 JUMP JUMPDEST JUMPDEST POP SWAP3 SWAP2 POP POP JUMP JUMPDEST PUSH32 0x4E487B7100000000000000000000000000000000000000000000000000000000 PUSH1 0x0 MSTORE PUSH1 0x12 PUSH1 0x4 MSTORE PUSH1 0x24 PUSH1 0x0 REVERT JUMPDEST PUSH1 0x0 PUSH2 0x47D DUP3 PUSH2 0x216 JUMP JUMPDEST SWAP2 POP PUSH2 0x488 DUP4 PUSH2 0x216 JUMP JUMPDEST SWAP3 POP DUP3 PUSH2 0x498 JUMPI PUSH2 0x497 PUSH2 0x443 JUMP JUMPDEST JUMPDEST DUP3 DUP3 DIV SWAP1 POP SWAP3 SWAP2 POP POP JUMP JUMPDEST PUSH2 0x4AC DUP2 PUSH2 0x216 JUMP JUMPDEST DUP3 MSTORE POP POP JUMP JUMPDEST PUSH1 0x0 PUSH1 0xA0 DUP3 ADD SWAP1 POP PUSH2 0x4C7 PUSH1 0x0 DUP4 ADD DUP9 PUSH2 0x4A3 JUMP JUMPDEST PUSH2 0x4D4 PUSH1 0x20 DUP4 ADD DUP8 PUSH2 0x4A3 JUMP JUMPDEST PUSH2 0x4E1 PUSH1 0x40 DUP4 ADD DUP7 PUSH2 0x4A3 JUMP JUMPDEST DUP2 DUP2 SUB PUSH1 0x60 DUP4 ADD MSTORE PUSH2 0x4F3 DUP2 DUP6 PUSH2 0x2F6 JUMP JUMPDEST SWAP1 POP DUP2 DUP2 SUB PUSH1 0x80 DUP4 ADD MSTORE PUSH2 0x507 DUP2 DUP5 PUSH2 0x2F6 JUMP JUMPDEST SWAP1 POP SWAP7 SWAP6 POP POP POP POP POP POP JUMP INVALID LOG2 PUSH5 0x6970667358 0x22 SLT KECCAK256 SDIV BALANCE 0x22 0xE4 DUP9 PUSH11 0x94874BE7E25D332444797B 0x2E JUMPDEST SWAP14 0xB6 SWAP11 0x4D ORIGIN 0xEA DUP4 PUSH12 0xC7E8CBBDF664736F6C634300 ADDMOD EQ STOP CALLER "},"methodIdentifiers":{"checkEligibility(uint256,uint256,uint256)":"37f672f9"}}}}}