{
  "_format": "hh-sol-artifact-1",
  "contractName": "TrustLoanLite",
  "sourceName": "contracts/TrustLoanLite.sol",
  "abi": [
    {
      "anonymous": false,
      "inputs": [
        {
          "indexed": true,
          "internalType": "address",
          "name": "user",
          "type": "address"
        },
        {
          "indexed": false,
          "internalType": "uint256",
          "name": "income",
          "type": "uint256"
        },
        {
          "indexed": false,
          "internalType": "uint256",
          "name": "expenses",
          "type": "uint256"
        },
        {
          "indexed": false,
          "internalType": "uint256",
          "name": "loanAmount",
          "type": "uint256"
        },
        {
          "indexed": false,
          "internalType": "bool",
          "name": "approved",
          "type": "bool"
        },
        {
          "indexed": false,
          "internalType": "string",
          "name": "reason",
          "type": "string"
        }
      ],
      "name": "EligibilityChecked",
      "type": "event"
    },
    {
      "inputs": [
        {
          "internalType": "uint256",
          "name": "_income",
          "type": "uint256"
        },
        {
          "internalType": "uint256",
          "name": "_expenses",
          "type": "uint256"
        }
      ],
      "name": "calculateDTI",
      "outputs": [
        {
          "internalType": "uint256",
          "name": "",
          "type": "uint256"
        }
      ],
      "stateMutability": "pure",
      "type": "function"
    },
    {
      "inputs": [
        {
          "internalType": "uint256",
          "name": "_income",
          "type": "uint256"
        },
        {
          "internalType": "uint256",
          "name": "_expenses",
          "type": "uint256"
        },
        {
          "internalType": "uint256",
          "name": "_loanAmount",
          "type": "uint256"
        }
      ],
      "name": "checkEligibility",
      "outputs": [],
      "stateMutability": "nonpayable",
      "type": "function"
    },
    {
      "inputs": [
        {
          "internalType": "address",
          "name": "",
          "type": "address"
        }
      ],
      "name": "eligibilityHistory",
      "outputs": [
        {
          "internalType": "bool",
          "name": "approved",
          "type": "bool"
        },
        {
          "internalType": "string",
          "name": "reason",
          "type": "string"
        },
        {
          "internalType": "uint256",
          "name": "timestamp",
          "type": "uint256"
        }
      ],
      "stateMutability": "view",
      "type": "function"
    },
    {
      "inputs": [
        {
          "internalType": "address",
          "name": "_user",
          "type": "address"
        }
      ],
      "name": "getEligibility",
      "outputs": [
        {
          "components": [
            {
              "internalType": "bool",
              "name": "approved",
              "type": "bool"
            },
            {
              "internalType": "string",
              "name": "reason",
              "type": "string"
            },
            {
              "internalType": "uint256",
              "name": "timestamp",
              "type": "uint256"
            }
          ],
          "internalType": "struct TrustLoanLite.EligibilityResult",
          "name": "",
          "type": "tuple"
        }
      ],
      "stateMutability": "view",
      "type": "function"
    }
  ],
  "bytecode": "0x608060405234801561001057600080fd5b50610805806100206000396000f3fe608060405234801561001057600080fd5b506004361061004c5760003560e01c806337f672f9146100515780637f6bf3e5146100665780638a8163731461008c578063dca11ab8146100ae575b600080fd5b61006461005f3660046104c4565b6100ce565b005b6100796100743660046104f0565b6102a5565b6040519081526020015b60405180910390f35b61009f61009a366004610512565b61031c565b60405161008393929190610588565b6100c16100bc366004610512565b6103cb565b60405161008391906105b3565b600083116101235760405162461bcd60e51b815260206004820152601d60248201527f496e636f6d65206d7573742062652067726561746572207468616e203000000060448201526064015b60405180910390fd5b6000811161017e5760405162461bcd60e51b815260206004820152602260248201527f4c6f616e20616d6f756e74206d7573742062652067726561746572207468616e604482015261020360f41b606482015260840161011a565b60008361019384670de0b6b3a76400006105f1565b61019d9190610616565b90506000606067058d15e1762800008310156101dc5750506040805180820190915260088152671054141493d5915160c21b6020820152600190610205565b505060408051808201909152600c81526b088a892bea89e9ebe90928e960a31b60208201526000905b60408051606081018252831515815260208082018481524283850152336000908152918290529290208151815460ff19169015151781559151909190600182019061025090826106d7565b506040918201516002909101555133907feff0b2ee824225ad81b69743227d3f1cd9625f77a52049e7fae918a6bc9b29c6906102959089908990899088908890610797565b60405180910390a2505050505050565b60008083116102f65760405162461bcd60e51b815260206004820152601d60248201527f496e636f6d65206d7573742062652067726561746572207468616e2030000000604482015260640161011a565b8261030983670de0b6b3a76400006105f1565b6103139190610616565b90505b92915050565b6000602081905290815260409020805460018201805460ff90921692916103429061064e565b80601f016020809104026020016040519081016040528092919081815260200182805461036e9061064e565b80156103bb5780601f10610390576101008083540402835291602001916103bb565b820191906000526020600020905b81548152906001019060200180831161039e57829003601f168201915b5050505050908060020154905083565b6103f1604051806060016040528060001515815260200160608152602001600081525090565b6001600160a01b03821660009081526020818152604091829020825160608101909352805460ff161515835260018101805491928401916104319061064e565b80601f016020809104026020016040519081016040528092919081815260200182805461045d9061064e565b80156104aa5780601f1061047f576101008083540402835291602001916104aa565b820191906000526020600020905b81548152906001019060200180831161048d57829003601f168201915b505050505081526020016002820154815250509050919050565b6000806000606084860312156104d957600080fd5b505081359360208301359350604090920135919050565b6000806040838503121561050357600080fd5b50508035926020909101359150565b60006020828403121561052457600080fd5b81356001600160a01b038116811461053b57600080fd5b9392505050565b6000815180845260005b818110156105685760208185018101518683018201520161054c565b506000602082860101526020601f19601f83011685010191505092915050565b83151581526060602082015260006105a36060830185610542565b9050826040830152949350505050565b6020815281511515602082015260006020830151606060408401526105db6080840182610542565b9050604084015160608401528091505092915050565b808202811582820484141761031657634e487b7160e01b600052601160045260246000fd5b60008261063357634e487b7160e01b600052601260045260246000fd5b500490565b634e487b7160e01b600052604160045260246000fd5b600181811c9082168061066257607f821691505b60208210810361068257634e487b7160e01b600052602260045260246000fd5b50919050565b601f8211156106d257600081815260208120601f850160051c810160208610156106af5750805b601f850160051c820191505b818110156106ce578281556001016106bb565b5050505b505050565b815167ffffffffffffffff8111156106f1576106f1610638565b610705816106ff845461064e565b84610688565b602080601f83116001811461073a57600084156107225750858301515b600019600386901b1c1916600185901b1785556106ce565b600085815260208120601f198616915b828110156107695788860151825594840194600190910190840161074a565b50858210156107875787850151600019600388901b60f8161c191681555b5050505050600190811b01905550565b858152846020820152836040820152821515606082015260a0608082015260006107c460a0830184610542565b97965050505050505056fea26469706673582212204731c93bf19c56376c0aac465b84239f33a8c0aa9f723f3342da79811af7226a64736f6c63430008130033",
  "linkReferences": {},
  "deployedLinkReferences": {}
}