{
  "_format": "hh-sol-artifact-1",
  "contractName": "TrustLoan",
  "sourceName": "contracts/TrustLoan.sol",
  "abi": [
    {
      "anonymous": false,
      "inputs": [
        {
          "indexed": true,
          "internalType": "address",
          "name": "applicant",
          "type": "address"
        },
        {
          "indexed": false,
          "internalType": "uint256",
          "name": "income",
          "type": "uint256"
        },
        {
          "indexed": false,
          "internalType": "uint256",
          "name": "expenses",
          "type": "uint256"
        },
        {
          "indexed": false,
          "internalType": "uint256",
          "name": "loanAmount",
          "type": "uint256"
        },
        {
          "indexed": false,
          "internalType": "string",
          "name": "status",
          "type": "string"
        },
        {
          "indexed": false,
          "internalType": "string",
          "name": "reason",
          "type": "string"
        }
      ],
      "name": "EligibilityChecked",
      "type": "event"
    },
    {
      "inputs": [
        {
          "internalType": "uint256",
          "name": "income",
          "type": "uint256"
        },
        {
          "internalType": "uint256",
          "name": "expenses",
          "type": "uint256"
        },
        {
          "internalType": "uint256",
          "name": "loanAmount",
          "type": "uint256"
        }
      ],
      "name": "checkEligibility",
      "outputs": [
        {
          "internalType": "string",
          "name": "status",
          "type": "string"
        },
        {
          "internalType": "string",
          "name": "reason",
          "type": "string"
        }
      ],
      "stateMutability": "nonpayable",
      "type": "function"
    }
  ],
  "bytecode": "0x608060405234801561001057600080fd5b50610549806100206000396000f3fe608060405234801561001057600080fd5b506004361061002b5760003560e01c806337f672f914610030575b600080fd5b61004a6004803603810190610045919061024c565b610061565b60405161005892919061032f565b60405180910390f35b606080600085116100a7576040517f08c379a000000000000000000000000000000000000000000000000000000000815260040161009e906103b2565b60405180910390fd5b6000856064866100b79190610401565b6100c19190610472565b90506028811015610141576040518060400160405280600881526020017f415050524f56454400000000000000000000000000000000000000000000000081525092506040518060400160405280601181526020017f4454495f57495448494e5f4c494d49545300000000000000000000000000000081525091506101b2565b6040518060400160405280600881526020017f52454a454354454400000000000000000000000000000000000000000000000081525092506040518060400160405280600c81526020017f4454495f544f4f5f48494748000000000000000000000000000000000000000081525091505b3373ffffffffffffffffffffffffffffffffffffffff167f1361325c7e1444bc7a8e336a9156ccc170d927322fc51464d87270fd5234e70f87878787876040516102009594939291906104b2565b60405180910390a250935093915050565b600080fd5b6000819050919050565b61022981610216565b811461023457600080fd5b50565b60008135905061024681610220565b92915050565b60008060006060848603121561026557610264610211565b5b600061027386828701610237565b935050602061028486828701610237565b925050604061029586828701610237565b9150509250925092565b600081519050919050565b600082825260208201905092915050565b60005b838110156102d95780820151818401526020810190506102be565b60008484015250505050565b6000601f19601f8301169050919050565b60006103018261029f565b61030b81856102aa565b935061031b8185602086016102bb565b610324816102e5565b840191505092915050565b6000604082019050818103600083015261034981856102f6565b9050818103602083015261035d81846102f6565b90509392505050565b7f496e636f6d65206d7573742062652067726561746572207468616e207a65726f600082015250565b600061039c6020836102aa565b91506103a782610366565b602082019050919050565b600060208201905081810360008301526103cb8161038f565b9050919050565b7f4e487b7100000000000000000000000000000000000000000000000000000000600052601160045260246000fd5b600061040c82610216565b915061041783610216565b925082820261042581610216565b9150828204841483151761043c5761043b6103d2565b5b5092915050565b7f4e487b7100000000000000000000000000000000000000000000000000000000600052601260045260246000fd5b600061047d82610216565b915061048883610216565b92508261049857610497610443565b5b828204905092915050565b6104ac81610216565b82525050565b600060a0820190506104c760008301886104a3565b6104d460208301876104a3565b6104e160408301866104a3565b81810360608301526104f381856102f6565b9050818103608083015261050781846102f6565b9050969550505050505056fea2646970667358221220053122e4886a94874be7e25d332444797b2e5b9db69a4d32ea836bc7e8cbbdf664736f6c63430008140033",
  "linkReferences": {},
  "deployedLinkReferences": {}
}