{
  "_format": "hh-sol-artifact-1",
  "contractName": "TrustLoan",
  "sourceName": "contracts/TrustLoan.sol",
  "abi": [
    {
      "anonymous": false,
      "inputs": [
        {
          "indexed": true,
          "internalType": "address",
          "name": "applicant",
          "type": "address"
        },
        {
          "indexed": false,
          "internalType": "uint256",
          "name": "income",
          "type": "uint256"
        },
        {
          "indexed": false,
          "internalType": "uint256",
          "name": "expenses",
          "type": "uint256"
        },
        {
          "indexed": false,
          "internalType": "uint256",
          "name": "loanAmount",
          "type": "uint256"
        },
        {
          "indexed": false,
          "internalType": "uint256",
          "name": "repaymentPeriod",
          "type": "uint256"
        },
        {
          "indexed": false,
          "internalType": "uint256",
          "name": "dtiPercent",
          "type": "uint256"
        },
        {
          "indexed": false,
          "internalType": "string",
          "name": "status",
          "type": "string"
        },
        {
          "indexed": false,
          "internalType": "string",
          "name": "reason",
          "type": "string"
        },
        {
          "indexed": false,
          "internalType": "uint256",
          "name": "timestamp",
          "type": "uint256"
        }
      ],
      "name": "EligibilityChecked",
      "type": "event"
    },
    {
      "inputs": [
        {
          "internalType": "uint256",
          "name": "income",
          "type": "uint256"
        },
        {
          "internalType": "uint256",
          "name": "expenses",
          "type": "uint256"
        },
        {
          "internalType": "uint256",
          "name": "loanAmount",
          "type": "uint256"
        },
        {
          "internalType": "uint256",
          "name": "repaymentPeriod",
          "type": "uint256"
        }
      ],
      "name": "checkEligibility",
      "outputs": [
        {
          "internalType": "string",
          "name": "status",
          "type": "string"
        },
        {
          "internalType": "string",
          "name": "reason",
          "type": "string"
        }
      ],
      "stateMutability": "nonpayable",
      "type": "function"
    }
  ],
  "bytecode": "0x608060405234801561001057600080fd5b506105f4806100206000396000f3fe608060405234801561001057600080fd5b506004361061002b5760003560e01c80634e28ee0b14610030575b600080fd5b61004a60048036038101906100459190610284565b610061565b60405161005892919061037b565b60405180910390f35b606080600086116100a7576040517f08c379a000000000000000000000000000000000000000000000000000000000815260040161009e906103fe565b60405180910390fd5b60008084116100b757600c6100b9565b835b9050600081866100c9919061047c565b90506000886064838a6100dc91906104ad565b6100e691906104e1565b6100f0919061047c565b90506028811015610170576040518060400160405280600881526020017f415050524f56454400000000000000000000000000000000000000000000000081525094506040518060400160405280601181526020017f4454495f57495448494e5f4c494d49545300000000000000000000000000000081525093506101e1565b6040518060400160405280600881526020017f52454a454354454400000000000000000000000000000000000000000000000081525094506040518060400160405280600c81526020017f4454495f544f4f5f48494748000000000000000000000000000000000000000081525093505b3373ffffffffffffffffffffffffffffffffffffffff167feb04bad63c3cbfcd90722aa43c345418aede4d9613684572ffcfa6cf9b31a67f8a8a8a87868b8b42604051610235989796959493929190610532565b60405180910390a250505094509492505050565b600080fd5b6000819050919050565b6102618161024e565b811461026c57600080fd5b50565b60008135905061027e81610258565b92915050565b6000806000806080858703121561029e5761029d610249565b5b60006102ac8782880161026f565b94505060206102bd8782880161026f565b93505060406102ce8782880161026f565b92505060606102df8782880161026f565b91505092959194509250565b600081519050919050565b600082825260208201905092915050565b60005b8381101561032557808201518184015260208101905061030a565b60008484015250505050565b6000601f19601f8301169050919050565b600061034d826102eb565b61035781856102f6565b9350610367818560208601610307565b61037081610331565b840191505092915050565b600060408201905081810360008301526103958185610342565b905081810360208301526103a98184610342565b90509392505050565b7f494e56414c49445f494e50555400000000000000000000000000000000000000600082015250565b60006103e8600d836102f6565b91506103f3826103b2565b602082019050919050565b60006020820190508181036000830152610417816103db565b9050919050565b7f4e487b7100000000000000000000000000000000000000000000000000000000600052601260045260246000fd5b7f4e487b7100000000000000000000000000000000000000000000000000000000600052601160045260246000fd5b60006104878261024e565b91506104928361024e565b9250826104a2576104a161041e565b5b828204905092915050565b60006104b88261024e565b91506104c38361024e565b92508282019050808211156104db576104da61044d565b5b92915050565b60006104ec8261024e565b91506104f78361024e565b92508282026105058161024e565b9150828204841483151761051c5761051b61044d565b5b5092915050565b61052c8161024e565b82525050565b600061010082019050610548600083018b610523565b610555602083018a610523565b6105626040830189610523565b61056f6060830188610523565b61057c6080830187610523565b81810360a083015261058e8186610342565b905081810360c08301526105a28185610342565b90506105b160e0830184610523565b999850505050505050505056fea26469706673582212204a667b779ce586c985a525e00a8d86b71b2a960c882ac8dcff70964db8dbf98464736f6c63430008140033",
  "linkReferences": {},
  "deployedLinkReferences": {}
}