{"contracts/TrustLoan.sol":{"TrustLoan":{"abi":[{"anonymous":false,"inputs":[{"indexed":true,"internalType":"address","name":"applicant","type":"address"},{"indexed":false,"internalType":"uint256","name":"income","type":"uint256"},{"indexed":false,"internalType":"uint256","name":"expenses","type":"uint256"},{"indexed":false,"internalType":"uint256","name":"loanAmount","type":"uint256"},{"indexed":false,"internalType":"uint256","name":"repaymentPeriod","type":"uint256"},{"indexed":false,"internalType":"uint256","name":"dtiPercent","type":"uint256"},{"indexed":false,"internalType":"string","name":"status","type":"string"},{"indexed":false,"internalType":"string","name":"reason","type":"string"},{"indexed":false,"internalType":"uint256","name":"timestamp","type":"uint256"}],"name":"EligibilityChecked","type":"event"},{"inputs":[{"internalType":"uint256","name":"income","type":"uint256"},{"internalType":"uint256","name":"expenses","type":"uint256"},{"internalType":"uint256","name":"loanAmount","type":"uint256"},{"internalType":"uint256","name":"repaymentPeriod","type":"uint256"}],"name":"checkEligibility","outputs":[{"internalType":"string","name":"status","type":"string"},{"internalType":"string","name":"reason","type":"string"}],"stateMutability":"nonpayable","type":"function"}],"evm":{"bytecode":{"linkReferences":{},"object":"608060405234801561001057600080fd5b506105f4806100206000396000f3fe608060405234801561001057600080fd5b506004361061002b5760003560e01c80634e28ee0b14610030575b600080fd5b61004a60048036038101906100459190610284565b610061565b60405161005892919061037b565b60405180910390f35b606080600086116100a7576040517f08c379a000000000000000000000000000000000000000000000000000000000815260040161009e906103fe565b60405180910390fd5b60008084116100b757600c6100b9565b835b9050600081866100c9919061047c565b90506000886064838a6100dc91906104ad565b6100e691906104e1565b6100f0919061047c565b90506028811015610170576040518060400160405280600881526020017f415050524f56454400000000000000000000000000000000000000000000000081525094506040518060400160405280601181526020017f4454495f57495448494e5f4c494d49545300000000000000000000000000000081525093506101e1565b6040518060400160405280600881526020017f52454a454354454400000000000000000000000000000000000000000000000081525094506040518060400160405280600c81526020017f4454495f544f4f5f48494748000000000000000000000000000000000000000081525093505b3373ffffffffffffffffffffffffffffffffffffffff167feb04bad63c3cbfcd90722aa43c345418aede4d9613684572ffcfa6cf9b31a67f8a8a8a87868b8b42604051610235989796959493929190610532565b60405180910390a250505094509492505050565b600080fd5b6000819050919050565b6102618161024e565b811461026c57600080fd5b50565b60008135905061027e81610258565b92915050565b6000806000806080858703121561029e5761029d610249565b5b60006102ac8782880161026f565b94505060206102bd8782880161026f565b93505060406102ce8782880161026f565b92505060606102df8782880161026f565b91505092959194509250565b600081519050919050565b600082825260208201905092915050565b60005b8381101561032557808201518184015260208101905061030a565b60008484015250505050565b6000601f19601f8301169050919050565b600061034d826102eb565b61035781856102f6565b9350610367818560208601610307565b61037081610331565b840191505092915050565b600060408201905081810360008301526103958185610342565b905081810360208301526103a98184610342565b90509392505050565b7f494e56414c49445f494e50555400000000000000000000000000000000000000600082015250565b60006103e8600d836102f6565b91506103f3826103b2565b602082019050919050565b60006020820190508181036000830152610417816103db565b9050919050565b7f4e487b7100000000000000000000000000000000000000000000000000000000600052601260045260246000fd5b7f4e487b7100000000000000000000000000000000000000000000000000000000600052601160045260246000fd5b60006104878261024e565b91506104928361024e565b9250826104a2576104a161041e565b5b828204905092915050565b60006104b88261024e565b91506104c38361024e565b92508282019050808211156104db576104da61044d565b5b92915050565b60006104ec8261024e565b91506104f78361024e565b92508282026105058161024e565b9150828204841483151761051c5761051b61044d565b5b5092915050565b61052c8161024e565b82525050565b600061010082019050610548600083018b610523565b610555602083018a610523565b6105626040830189610523565b61056f6060830188610523565b61057c6080830187610523565b81810360a083015261058e8186610342565b905081810360c08301526105a28185610342565b90506105b160e0830184610523565b999850505050505050505056fea26469706673582212204a667b779ce586c985a525e00a8d86b71b2a960c882ac8dcff70964db8dbf98464736f6c63430008140033","opcodes":"PUSH1 0x80 PUSH1 0x40 MSTORE CALLVALUE DUP1 ISZERO PUSH2 0x10 JUMPI PUSH1 0x0 DUP1 REVERT JUMPDEST POP PUSH2 0x5F4 DUP1 PUSH2 0x20 PUSH1 0x0 CODECOPY PUSH1 0x0 RETURN INVALID PUSH1 0x80 PUSH1 0x40 MSTORE CALLVALUE DUP1 ISZERO PUSH2 0x10 JUMPI PUSH1 0x0 DUP1 REVERT JUMPDEST POP PUSH1 0x4 CALLDATASIZE LT PUSH2 0x2B JUMPI PUSH1 0x0 CALLDATALOAD PUSH1 0xE0 SHR DUP1 PUSH4 0x4E28EE0B EQ PUSH2 0x30 JUMPI JUMPDEST PUSH1 0x0 DUP1 REVERT JUMPDEST PUSH2 0x4A PUSH1 0x4 DUP1 CALLDATASIZE SUB DUP2 ADD SWAP1 PUSH2 0x45 SWAP2 SWAP1 PUSH2 0x284 JUMP JUMPDEST PUSH2 0x61 JUMP JUMPDEST PUSH1 0x40 MLOAD PUSH2 0x58 SWAP3 SWAP2 SWAP1 PUSH2 0x37B JUMP JUMPDEST PUSH1 0x40 MLOAD DUP1 SWAP2 SUB SWAP1 RETURN JUMPDEST PUSH1 0x60 DUP1 PUSH1 0x0 DUP7 GT PUSH2 0xA7 JUMPI PUSH1 0x40 MLOAD PUSH32 0x8C379A000000000000000000000000000000000000000000000000000000000 DUP2 MSTORE PUSH1 0x4 ADD PUSH2 0x9E SWAP1 PUSH2 0x3FE JUMP JUMPDEST PUSH1 0x40 MLOAD DUP1 SWAP2 SUB SWAP1 REVERT JUMPDEST PUSH1 0x0 DUP1 DUP5 GT PUSH2 0xB7 JUMPI PUSH1 0xC PUSH2 0xB9 JUMP JUMPDEST DUP4 JUMPDEST SWAP1 POP PUSH1 0x0 DUP2 DUP7 PUSH2 0xC9 SWAP2 SWAP1 PUSH2 0x47C JUMP JUMPDEST SWAP1 POP PUSH1 0x0 DUP9 PUSH1 0x64 DUP4 DUP11 PUSH2 0xDC SWAP2 SWAP1 PUSH2 0x4AD JUMP JUMPDEST PUSH2 0xE6 SWAP2 SWAP1 PUSH2 0x4E1 JUMP JUMPDEST PUSH2 0xF0 SWAP2 SWAP1 PUSH2 0x47C JUMP JUMPDEST SWAP1 POP PUSH1 0x28 DUP2 LT ISZERO PUSH2 0x170 JUMPI PUSH1 0x40 MLOAD DUP1 PUSH1 0x40 ADD PUSH1 0x40 MSTORE DUP1 PUSH1 0x8 DUP2 MSTORE PUSH1 0x20 ADD PUSH32 0x415050524F564544000000000000000000000000000000000000000000000000 DUP2 MSTORE POP SWAP5 POP PUSH1 0x40 MLOAD DUP1 PUSH1 0x40 ADD PUSH1 0x40 MSTORE DUP1 PUSH1 0x11 DUP2 MSTORE PUSH1 0x20 ADD PUSH32 0x4454495F57495448494E5F4C494D495453000000000000000000000000000000 DUP2 MSTORE POP SWAP4 POP PUSH2 0x1E1 JUMP JUMPDEST PUSH1 0x40 MLOAD DUP1 PUSH1 0x40 ADD PUSH1 0x40 MSTORE DUP1 PUSH1 0x8 DUP2 MSTORE PUSH1 0x20 ADD PUSH32 0x52454A4543544544000000000000000000000000000000000000000000000000 DUP2 MSTORE POP SWAP5 POP PUSH1 0x40 MLOAD DUP1 PUSH1 0x40 ADD PUSH1 0x40 MSTORE DUP1 PUSH1 0xC DUP2 MSTORE PUSH1 0x20 ADD PUSH32 0x4454495F544F4F5F484947480000000000000000000000000000000000000000 DUP2 MSTORE POP SWAP4 POP JUMPDEST CALLER PUSH20 0xFFFFFFFFFFFFFFFFFFFFFFFFFFFFFFFFFFFFFFFF AND PUSH32 0xEB04BAD63C3CBFCD90722AA43C345418AEDE4D9613684572FFCFA6CF9B31A67F DUP11 DUP11 DUP11 DUP8 DUP7 DUP12 DUP12 TIMESTAMP PUSH1 0x40 MLOAD PUSH2 0x235 SWAP9 SWAP8 SWAP7 SWAP6 SWAP5 SWAP4 SWAP3 SWAP2 SWAP1 PUSH2 0x532 JUMP JUMPDEST PUSH1 0x40 MLOAD DUP1 SWAP2 SUB SWAP1 LOG2 POP POP POP SWAP5 POP SWAP5 SWAP3 POP POP POP JUMP JUMPDEST PUSH1 0x0 DUP1 REVERT JUMPDEST PUSH1 0x0 DUP2 SWAP1 POP SWAP2 SWAP1 POP JUMP JUMPDEST PUSH2 0x261 DUP2 PUSH2 0x24E JUMP JUMPDEST DUP2 EQ PUSH2 0x26C JUMPI PUSH1 0x0 DUP1 REVERT JUMPDEST POP JUMP JUMPDEST PUSH1 0x0 DUP2 CALLDATALOAD SWAP1 POP PUSH2 0x27E DUP2 PUSH2 0x258 JUMP JUMPDEST SWAP3 SWAP2 POP POP JUMP JUMPDEST PUSH1 0x0 DUP1 PUSH1 0x0 DUP1 PUSH1 0x80 DUP6 DUP8 SUB SLT ISZERO PUSH2 0x29E JUMPI PUSH2 0x29D PUSH2 0x249 JUMP JUMPDEST JUMPDEST PUSH1 0x0 PUSH2 0x2AC DUP8 DUP3 DUP9 ADD PUSH2 0x26F JUMP JUMPDEST SWAP5 POP POP PUSH1 0x20 PUSH2 0x2BD DUP8 DUP3 DUP9 ADD PUSH2 0x26F JUMP JUMPDEST SWAP4 POP POP PUSH1 0x40 PUSH2 0x2CE DUP8 DUP3 DUP9 ADD PUSH2 0x26F JUMP JUMPDEST SWAP3 POP POP PUSH1 0x60 PUSH2 0x2DF DUP8 DUP3 DUP9 ADD PUSH2 0x26F JUMP JUMPDEST SWAP2 POP POP SWAP3 SWAP6 SWAP2 SWAP5 POP SWAP3 POP JUMP JUMPDEST PUSH1 0x0 DUP2 MLOAD SWAP1 POP SWAP2 SWAP1 POP JUMP JUMPDEST PUSH1 0x0 DUP3 DUP3 MSTORE PUSH1 0x20 DUP3 ADD SWAP1 POP SWAP3 SWAP2 POP POP JUMP JUMPDEST PUSH1 0x0 JUMPDEST DUP4 DUP2 LT ISZERO PUSH2 0x325 JUMPI DUP1 DUP3 ADD MLOAD DUP2 DUP5 ADD MSTORE PUSH1 0x20 DUP2 ADD SWAP1 POP PUSH2 0x30A JUMP JUMPDEST PUSH1 0x0 DUP5 DUP5 ADD MSTORE POP POP POP POP JUMP JUMPDEST PUSH1 0x0 PUSH1 0x1F NOT PUSH1 0x1F DUP4 ADD AND SWAP1 POP SWAP2 SWAP1 POP JUMP JUMPDEST PUSH1 0x0 PUSH2 0x34D DUP3 PUSH2 0x2EB JUMP JUMPDEST PUSH2 0x357 DUP2 DUP6 PUSH2 0x2F6 JUMP JUMPDEST SWAP4 POP PUSH2 0x367 DUP2 DUP6 PUSH1 0x20 DUP7 ADD PUSH2 0x307 JUMP JUMPDEST PUSH2 0x370 DUP2 PUSH2 0x331 JUMP JUMPDEST DUP5 ADD SWAP2 POP POP SWAP3 SWAP2 POP POP JUMP JUMPDEST PUSH1 0x0 PUSH1 0x40 DUP3 ADD SWAP1 POP DUP2 DUP2 SUB PUSH1 0x0 DUP4 ADD MSTORE PUSH2 0x395 DUP2 DUP6 PUSH2 0x342 JUMP JUMPDEST SWAP1 POP DUP2 DUP2 SUB PUSH1 0x20 DUP4 ADD MSTORE PUSH2 0x3A9 DUP2 DUP5 PUSH2 0x342 JUMP JUMPDEST SWAP1 POP SWAP4 SWAP3 POP POP POP JUMP JUMPDEST PUSH32 0x494E56414C49445F494E50555400000000000000000000000000000000000000 PUSH1 0x0 DUP3 ADD MSTORE POP JUMP JUMPDEST PUSH1 0x0 PUSH2 0x3E8 PUSH1 0xD DUP4 PUSH2 0x2F6 JUMP JUMPDEST SWAP2 POP PUSH2 0x3F3 DUP3 PUSH2 0x3B2 JUMP JUMPDEST PUSH1 0x20 DUP3 ADD SWAP1 POP SWAP2 SWAP1 POP JUMP JUMPDEST PUSH1 0x0 PUSH1 0x20 DUP3 ADD SWAP1 POP DUP2 DUP2 SUB PUSH1 0x0 DUP4 ADD MSTORE PUSH2 0x417 DUP2 PUSH2 0x3DB JUMP JUMPDEST SWAP1 POP SWAP2 SWAP1 POP JUMP JUMPDEST PUSH32 0x4E487B7100000000000000000000000000000000000000000000000000000000 PUSH1 0x0 MSTORE PUSH1 0x12 PUSH1 0x4 MSTORE PUSH1 0x24 PUSH1 0x0 REVERT JUMPDEST PUSH32 0x4E487B7100000000000000000000000000000000000000000000000000000000 PUSH1 0x0 MSTORE PUSH1 0x11 PUSH1 0x4 MSTORE PUSH1 0x24 PUSH1 0x0 REVERT JUMPDEST PUSH1 0x0 PUSH2 0x487 DUP3 PUSH2 0x24E JUMP JUMPDEST SWAP2 POP PUSH2 0x492 DUP4 PUSH2 0x24E JUMP JUMPDEST SWAP3 POP DUP3 PUSH2 0x4A2 JUMPI PUSH2 0x4A1 PUSH2 0x41E JUMP JUMPDEST JUMPDEST DUP3 DUP3 DIV SWAP1 POP SWAP3 SWAP2 POP POP JUMP JUMPDEST PUSH1 0x0 PUSH2 0x4B8 DUP3 PUSH2 0x24E JUMP JUMPDEST SWAP2 POP PUSH2 0x4C3 DUP4 PUSH2 0x24E JUMP JUMPDEST SWAP3 POP DUP3 DUP3 ADD SWAP1 POP DUP1 DUP3 GT ISZERO PUSH2 0x4DB JUMPI PUSH2 0x4DA PUSH2 0x44D JUMP JUMPDEST JUMPDEST SWAP3 SWAP2 POP POP JUMP JUMPDEST PUSH1 0x0 PUSH2 0x4EC DUP3 PUSH2 0x24E JUMP JUMPDEST SWAP2 POP PUSH2 0x4F7 DUP4 PUSH2 0x24E JUMP JUMPDEST SWAP3 POP DUP3 DUP3 MUL PUSH2 0x505 DUP2 PUSH2 0x24E JUMP JUMPDEST SWAP2 POP DUP3 DUP3 DIV DUP5 EQ DUP4 ISZERO OR PUSH2 0x51C JUMPI PUSH2 0x51B PUSH2 0x44D JUMP JUMPDEST JUMPDEST POP SWAP3 SWAP2 POP POP JUMP JUMPDEST PUSH2 0x52C DUP2 PUSH2 0x24E JUMP JUMPDEST DUP3 MSTORE POP POP JUMP JUMPDEST PUSH1 0x0 PUSH2 0x100 DUP3 ADD SWAP1 POP PUSH2 0x548 PUSH1 0x0 DUP4 ADD DUP12 PUSH2 0x523 JUMP JUMPDEST PUSH2 0x555 PUSH1 0x20 DUP4 ADD DUP11 PUSH2 0x523 JUMP JUMPDEST PUSH2 0x562 PUSH1 0x40 DUP4 ADD DUP10 PUSH2 0x523 JUMP JUMPDEST PUSH2 0x56F PUSH1 0x60 DUP4 ADD DUP9 PUSH2 0x523 JUMP JUMPDEST PUSH2 0x57C PUSH1 0x80 DUP4 ADD DUP8 PUSH2 0x523 JUMP JUMPDEST DUP2 DUP2 SUB PUSH1 0xA0 DUP4 ADD MSTORE PUSH2 0x58E DUP2 DUP7 PUSH2 0x342 JUMP JUMPDEST SWAP1 POP DUP2 DUP2 SUB PUSH1 0xC0 DUP4 ADD MSTORE PUSH2 0x5A2 DUP2 DUP6 PUSH2 0x342 JUMP JUMPDEST SWAP1 POP PUSH2 0x5B1 PUSH1 0xE0 DUP4 ADD DUP5 PUSH2 0x523 JUMP JUMPDEST SWAP10 SWAP9 POP POP POP POP POP POP POP POP POP JUMP INVALID LOG2 PUSH5 0x6970667358 0x22 SLT KECCAK256 0x4A PUSH7 0x7B779CE586C985 0xA5 0x25 0xE0 EXP DUP14 DUP7 0xB7 SHL 0x2A SWAP7 0xC DUP9 0x2A 0xC8 0xDC SELFDESTRUCT PUSH17 0x964DB8DBF98464736F6C63430008140033 "},"methodIdentifiers":{"checkEligibility(uint256,uint256,uint256,uint256)":"4e28ee0b"}}}}}